:100000000A308A00452A0000FF00030E8301A50084
:100010007F08A4000A08AB008A01A40E0408A60009
:100020002008A7002108A8002208A9002308AA0088
:10003000831383128B1E1E280B1935288C308400E5
:10004000801E24288C1A3728260884002708A00040
:100050002808A1002908A2002A08A3002B088A006A
:10006000250E8300FF0E7F0E09008A1173298A1165
:1000700015290D054937741DA0126410EC37F704DB
:1000800025183526F5060A1F00000D054937741D91
:10009000A0126410E83467348912B01ACC3A0D0506
:1000A0003E00F604F632F239E937EE060A32093834
:1000B0006937A0316F37E634E7060A00EC04EC3705
:1000C0006132A0316F37E634E7068A398939613BFE
:1000D0006510E3376E33E9330D050001E604E637BA
:1000E000F236613A203A6F10E432E6307536F43970
:1000F0000D050001F804F232E2376F3A0D050001F8
:100100006328502289316F37E63467102828A934D4
:100110006E102822A934F232633AE9376E150D05C4
:1001200000017228D004F23261322014D0146937F1
:10013000203B6136F5320D0500017728502B893BB5
:10014000F234F4322014D01469372014D6146136F6
:10015000F532201430106F39A018A9060A0069285A
:10016000D0220914D0146937A0346E3A6539F23AB6
:10017000703A7310A82229376131EC320D05000165
:100180000D052A10C434F232633AE9376E10B01EFE
:100190004937F03A7410B11ECF3A7438753A0D05EC
:1001A000000109286937201450282910301A203AF4
:1001B0006F10B11A0D050000D034EE04C434F232D1
:1001C000633AE937EE04D630EC3AE5044937F432C5
:1001D00072397538F4390D050001B018092B6937EB
:1001E0000D050001301989236E320D050001B0198B
:1001F000891AF6060A004937F03AF4040900CF3AA2
:100200007438753A890400014539F2377200311BA0
:10021000891AF6060A00B11B89236E320D0500010A
:10022000311C092B69370D0500008C1E1529140897
:10023000D3003D0B40292A308C1C1C2995003E0818
:1002400083169B008312530883169A009C131C1577
:1002500083120B08A0008B13831655309D00AA3023
:100260009D009C149C1832291C11831220088B04B9
:100270003E08173C031C3E29BE0A3F29BD016C29DC
:100280005308083C0319482953087F3C031D522991
:1002900035303A07840083138001BA0803195129C5
:1002A000BA036C2953080D3C031D58290130BB00CB
:1002B0003A08033C031C6C293B0B652901303A07C3
:1002C000353E8400831380016C293A08BA0A353E12
:1002D000840083135308800053088C1C6D299500FB
:1002E0008C128A1124280130B402B408031D7A2923
:1002F0002030B400BF0A0319C00A0130BC0000302E
:10030000A1000B118A112428C637F236613AF43461
:10031000EE330D050001CC37613265320D05000169
:10032000D330F632E4060A00D0346E102532A02411
:100330006E38753AA0376E36F9060A00D0346E1062
:1003400025322037EF3B20004937F03AF4060A0007
:10035000CF3A7438753A0D0500010D054937F6306E
:10036000EC346410D0346E10D630EC060A004937F5
:10037000F630EC346410C4347210D630EC060A0047
:10038000D0346E102532A037753AF03A7410F3323B
:100390007410F437A012E4060A000D054937F63050
:1003A000EC346410D0346E10D630EC060A004937B5
:1003B000F630EC346410CF3A7438753A202B61363D
:1003C0000D050001D0346E102532203B6136A0347B
:1003D000731025322014CF3A7438753AA9060A00F2
:1003E000D0346E102532203B6136A0347310253294
:1003F00020144937F03AF4140D0500010D05493772
:10040000F630EC346410D0346E10D630EC060A00AE
:10041000D0346E102532A0346E3A2032E939613181
:10042000EC32E4060A00D0346E102532A0346E3A65
:10043000A032EE30623665320D0500010D054937F8
:10044000F630EC346410D0346E10D630EC060A006E
:100450004937F630EC34641049377410D630EC0666
:100460000A00413963346F37693C2021EF37E234A9
:100470006510D612641725320D0500012021EF37D3
:10048000E2346510F7307310E2377237A030741021
:100490000001A0376E100001C2306410C337ED3682
:1004A0006137E4060A001A30C7004708C70AC800C7
:1004B000CA012C30C9004A08A300490884008313EC
:1004C000231883170008C900480883169B0083126D
:1004D000490883169A009C131C1583120B08A00070
:1004E0008B13831655309D00AA309D009C149C18D8
:1004F000772A1C11831220088B044708C70AC800FA
:10050000CA012C30C90001304907A1004A08A300E4
:100510000318A30A210884008313231883170008F3
:10052000C900480883169B008312490883169A0065
:100530009C131C1583120B08A0008B1383165530D7
:100540009D00AA309D009C149C18A42A1C118312A3
:1005500020088B044708C70AC800CA012E30C9000A
:100560004A08A3004908840083132318831700084E
:10057000C900480883169B008312490883169A0015
:100580009C131C1583120B08A0008B138316553087
:100590009D00AA309D009C149C18CC2A1C1183122B
:1005A00020088B044708C70AC800CA012E30C900BA
:1005B00001304907A1004A08A3000318A30A210833
:1005C00084008313231883170008C9004808831682
:1005D0009B008312490883169A009C131C158312F2
:1005E0000B08A0008B13831655309D00AA309D0088
:1005F0009C149C18F92A1C11831220088B044708AC
:10060000C70AC800CA013030C9004A08A300490817
:1006100084008313231883170008C9004808831631
:100620009B008312490883169A009C131C158312A1
:100630000B08A0008B13831655309D00AA309D0037
:100640009C149C18212B1C11831220088B04470832
:10065000C70AC800CA013030C90001304907A100EB
:100660004A08A3000318A30A21088400831323184F
:1006700083170008C900480883169B0083124908A5
:1006800083169A009C131C1583120B08A0008B1371
:10069000831655309D00AA309D009C149C184E2B4B
:1006A0001C11831220088B0483169B0155309A007D
:1006B0009C131C1583120B08A0008B138316553056
:1006C0009D00AA309D009C149C18642B1C11831261
:1006D00020088B040800AD01AC01AF01AE01B101EF
:1006E000B001532208001A30C700C9012C30C800DD
:1006F0004908A30048088400831323188317470878
:10070000C70ACA004A0883169B009C131C141A08C7
:1007100080008312C9012C30C80001304807A100B5
:100720004908A3000318A30A21088400831323188F
:1007300083174708C70ACA004A0883169B009C1300
:100740001C141A0880008312C9012E30C800490801
:10075000A300480884008313231883174708C70A97
:10076000CA004A0883169B009C131C141A088000B8
:100770008312C9012E30C80001304807A100490882
:10078000A3000318A30A21088400831323188317E6
:100790004708C70ACA004A0883169B009C131C140A
:1007A0001A0880008312C9013030C8004908A3002C
:1007B000480884008313231883174708C70ACA0010
:1007C0004A0883169B009C131C141A08800083128D
:1007D000C9013030C80001304807A1004908A30012
:1007E0000318A30A210884008313231883174708DA
:1007F000C70ACA004A0883169B009C131C141A08D7
:10080000800083120800A3010130A2004908A00063
:1008100003190F2C0310A20DA30DA00B0A2C220804
:100820004B05CD0023084C05CE00CD08031D1B2C25
:10083000CE0803191F2C0130A100222C222C0030DD
:10084000A100222C08004808F43E03189E2C0C3E00
:100850009F2CC9080319312C831685128312851623
:10086000352C83168512831285129E2CC908031914
:100870003E2C8316051283120516422C8316051290
:10088000831205129E2CC90803194B2C831687115D
:10089000831287154F2C83168711831287119E2C84
:1008A000C9080319582C83160510831205145C2CF3
:1008B00083160510831205109E2CC9080319652C98
:1008C0008316851083128514692C83168510831274
:1008D00085109E2CC9080319722C831605118312EA
:1008E0000515762C83160511831205119E2CC90857
:1008F00003197F2C8316071083120714832C831689
:100900000710831207109E2CC90803198C2C83161C
:10091000871083128714902C8316871083128710F8
:100920009E2CC9080319992C8316071183120715E9
:100930009D2C83160711831207119E2C08000A10A4
:100940008A100A158207292C362C9E2C9E2C9E2C50
:10095000432C502C5D2C6A2C772C842C912CC701B5
:1009600047080B3C031CD62CCA014708C9002D08B8
:10097000CC002C08CB000324A1080319D42CCA01F5
:100980004708C9002F08CC002E08CB000324A1087B
:10099000031DCF2C4708C800C9012324D42C4708C5
:1009A000C8000130C9002324C70AB02C0800490838
:1009B000F43E0318372D0C3E382D83168516003073
:1009C0008312851A0130A100372D372D83160516A5
:1009D00000308312051A0130A100372D372D831600
:1009E00085150030831285190130A100372D372D70
:1009F000831687150030831287190130A100372D27
:100A0000372D831605140030831205180130A1001C
:100A1000372D372D83168514003083128518013049
:100A2000A100372D372D83160515003083120519C7
:100A30000130A100372D372D8316071400308312A3
:100A400007180130A100372D372D83168714003089
:100A5000831287180130A100372D372D8316071513
:100A60000030831207190130A100372D372D0800FF
:100A70000A148A100A158207DD2CE62CEF2C372D7C
:100A8000372DF82C012D0A2D132D1C2D252D2E2D43
:100A90004D0B4B2D672DA3010130A2004908A0008A
:100AA0000319572D0310A20DA30DA00B522D2208E0
:100AB000A001A003A006FF30A3062008CB05230851
:100AC000CC054B08A1004C08A2007E2D7E2DA30171
:100AD0000130A2004908A0000319732D0310A20DD4
:100AE000A30DA00B6E2D22084B04A00023084C047C
:100AF000A3002008A1002308A2007E2D0800C70142
:100B000047080B3C031CA42DCA014708C9002D0847
:100B1000CC002C08CB000324A108031DA22D4708FC
:100B2000C900D7242108C800CA014708C9003308F2
:100B3000CC003208CB002108CD0048252208B300A4
:100B40002108B200C70A802D0800C9014908033CEA
:100B5000031CB32D490847078400831348188317E3
:100B60008001C90AA62DBA01080083169C171C141F
:100B7000000000000318DF2D1A087F398312CB0014
:100B800083161B088312CC00831618088312CD002D
:100B90004B088C1CC92D95004C0883169B008312B2
:100BA0004D08831698009C171C1400000000831247
:100BB000CA0BDB2DDD2D8316DF2DFE2D83161A0DBE
:100BC000170D7F398312CB0083161B088312CC00CC
:100BD000831618088312CD004B088C1CED2D950050
:100BE0004C0883169B0083124D08831698009B0ABD
:100BF0000319980A03108312CA0BB52D0800510877
:100C0000A10150020318072E5008A000132EA001C6
:100C10000830D200D00DA00D510820020318A0000A
:100C2000A10DD20B0A2E080020304B1E3030CC0014
:100C30004A08A000CA1F232EA009A00A2008CA0043
:100C40002D30CC00CB174A08D0006430D100FF25EE
:100C50002008CA0030302107CD004A08D0000A30F1
:100C6000D100FF2530302007CF0030302107CE00E3
:100C70004C08A000CB1D3E2ECB1F4B114B1A4B2E08
:100C8000CB1F662E4B19662E2008CD00CB18662E82
:100C90002008CE00662E30304D02031D662E20083F
:100CA000CD002030CC00CB1D592E4B11CB14CB1FC7
:100CB000CB1030304E02031D662E2008CE002030AF
:100CC000CD00CB1D592ECB10CB1F4B104B1D6C2EC6
:100CD0004C088C1C692E9500CB1C722E4D088C1C68
:100CE0006F2E95004B1C782E4E088C1C752E95008F
:100CF0004F088C1C792E95000800D2010408D10001
:100D00005210831B52144B0EF038CD00CD07E23E3B
:100D1000CE00323ED0004B080F39CE07CE07D007A9
:100D2000E93ECF00CF07CF074A0E0F39CF07D007D4
:100D3000CF0DD00DD009D00D4A080F39D007CD0DF9
:100D40000730CC000A30D007CF03031CA32ECF07F7
:100D5000CE03031CA72ECE07CD03031CAB2ECD075D
:100D6000CC03031CAF2E4C30840083130730510595
:100D70005113840750300402031951170008A000D2
:100D8000031DCA2E511BCA2E511AD22ED119CA2E9A
:100D90002030CD2ED11551123030A00720088C1CE8
:100DA000CF2E9500840A511FBA2E0800C7014708AC
:100DB0000B3C031C742FCA014708C9002D08CC0046
:100DC0002C08CB000324A108031D722FCA01470879
:100DD000C9003108CC003008CB000324A108031956
:100DE000722F4708C900D7242108C800CA01470844
:100DF000C9003308CC003208CB0003244808210284
:100E00000319722FCA014708C9003308CC00320801
:100E1000CB004808CD0048252208B3002108B200C5
:100E2000C808031D432F04304707C9003930831613
:100E30009B0000309800031007308312CA00B525CC
:100E40004908CA001F30CB0014263D3083169B0092
:100E500000309800031405308312CA00B52508300D
:100E600084004008CB003F08CA007D260D308C1C52
:100E7000372F95000A308C1C3B2F95003E308C1C80
:100E80003F2F9500722F04304707C9004530831665
:100E90009B0000309800031007308312CA00B5256C
:100EA0004908CA001F30CB001426493083169B0026
:100EB00000309800031406308312CA00B5250830AC
:100EC00084004008CB003F08CA007D260D308C1CF2
:100ED000672F95000A308C1C6B2F95003E308C1CC0
:100EE0006F2F9500C70AD72E8A15992A83169C174B
:100EF0001C14000000001A087F390319B62F831252
:100F0000C80083161B088312C900831618088312B1
:100F1000CA0048088C1C8A2F9500490883169B003C
:100F200083124A08831698009C171C1400000000C6
:100F30001A0D170D7F390319B62F8312C8008316B7
:100F40001B088312C900831618088312CA004808B8
:100F50008C1CA82F9500490883169B0083124A0811
:100F6000831698009B0A0319980A772F83120800AA
:100F7000513083169B0000309800831276275E3034
:100F800083169B0000309800831276276E308316FC
:100F90009B0000309800831276277A3083169B00DE
:100FA0000030980083127627803083169B00003033
:100FB000980083127627913083169B0000309800AA
:100FC000831276279D3083169B0000309800831291
:100FD0007627AF3083169B00003098008312762767
:100FE000C03083169B000030980083127627D130E2
:100FF00083169B0000309800831276278A15C92E2D
:10100000C908031D10284F308C1C04289500663039
:101010008C1C0828950066308C1C0C2895002B2809
:10102000490B1F284F308C1C132895006E308C1CE8
:101030001728950020308C1C1B2895002B284E303B
:101040008C1C2028950041308C1C242895002030D1
:101050008C1C282895000800DC3083169B0000308B
:1010600098008A11831276278A15ED3083169B002B
:10107000003098008A11831276278A15F230831681
:101080009B00003098008A11831276278A15F7306A
:1010900083169B00003098008A11831276278A15E8
:1010A000C70147080B3C031CF42804304707C8005D
:1010B000CA000130CB008A1114268A1509308C1C15
:1010C0005F2895004708033C031D6F2852308C1C95
:1010D0006728950058308C1C6B289500EA28470833
:1010E000043C031D7C2854308C1C74289500583017
:1010F0008C1C78289500EA28CA014708C9002D08E9
:10110000CC002C08CB008A1103248A15210803196E
:101110008D28013A0319A028B828FB3083169B00BC
:10112000003098008A11831276278A154708C90073
:101130008A11D7248A152108C800C9000020C228B6
:10114000FF3083169B00003098008A1183127627A7
:101150008A15CA014708C9002F08CC002E08CB0009
:101160008A1103248A152108C800C9000020C2285A
:10117000043083169B00013098008A118312762771
:101180008A15C22809308C1CC3289500CA0147085B
:10119000C9002D08CC002C08CB008A1103248A1525
:1011A00021080319D728013A0319E628EA28CA01B9
:1011B0004708C9003108CC003008CB008A1103244D
:1011C0008A152108C800C9000020EA280230C90099
:1011D0000020EA280D308C1CEB2895000A308C1C6E
:1011E000EF289500C70A5128073083169B0001306D
:1011F00098008A11831276278A150B3083169B007C
:10120000013098008A11831276278A1510308316D0
:101210009B00013098008A11831276278A158A155F
:10122000652BCB01CA014A084902031C25294A083B
:10123000470784008313481883178008031D232958
:101240000130CB002529CA0A13294B0B2829342940
:101250000130490747078400831348188317800823
:10126000031934290130CB004B08A1000800CC0140
:10127000CA010A30CB00C90147084804031D4329AD
:101280000030A100342A4C08CC0A4707840083139D
:10129000481883170008CD004D082D3C031D5C291C
:1012A0000130CA004C08CC0A470784008313481851
:1012B00083170008CD0069294D082B3C031D6929BF
:1012C0004C08CC0A4707840083134818831700088A
:1012D000CD004D082F3C03182A2A4D08393C031C29
:1012E0002A2A4D08303C031D95294C0847078400E5
:1012F0008313481883170008783C031989294C0880
:10130000470784008313481883170008583C031DBF
:1013100095291030CB00CC0A4C08CC0A4707840032
:101320008313481883170008CD004B080A3C031D9F
:10133000D8294D082F3C0318D7294D08393C031CE8
:10134000D7290A30CE004908CF00A001A1014E08DC
:1013500003104F18A007A00CA10CCF18A007A00CD9
:10136000A10C4F19A007A00CA10CCF19A007A00C2D
:10137000A10C4F1AA007A00CA10CCF1AA007A00C1B
:10138000A10C4F1BA007A00CA10CCF1BA007A00C09
:10139000A10C30304D022107C9004C08CC0A470788
:1013A00084008313481883170008CD0099292A2A3E
:1013B0004B08103C031D2A2A4D08603C0318E729FE
:1013C0004D087A3C031CE7294D08DF39E8294D0810
:1013D000CD004D082F3C0318F1294D08393C031866
:1013E000F9294D08403C03182A2A4D08463C031CA5
:1013F0002A2A4D082F3C03180A2A4D08393C031CA1
:101400000A2A490ECE00F030CE0530304D024E078C
:10141000C900132A490ECE00F030CE0541304D02EE
:101420000A3E4E07C9004C08CC0A470784008313C4
:10143000481883170008CD004D08603C0318272A80
:101440004D087A3C031C272A4D08DF39282A4D080D
:10145000CD00E9294A0B322A4B080A3C031D322AE7
:10146000C909C90A4908A10008004708033C031834
:10147000412A47080F3C031C412A0130A100442A9D
:10148000442A0030A100442A0800840183131F303D
:101490008305713083168F000F0883129115223057
:1014A000930000309200A630960090309700BA0169
:1014B000BB01BC01BD01BE01C001BF011F13003053
:1014C0008316910083129A01073099008101083038
:1014D000980083160108C0390538810064008C1615
:1014E00083128B16C0308B0483169B019C131C1433
:1014F0001A08553C0319812A8A1183126B238A1515
:1015000083168A11831273238A158A11AF248A15D0
:101510008A117F258A15C8013530C7008A11A52593
:101520008A157630B5000130BB003C0B9B2A8A112E
:10153000D62E8A15BC013B0BD32EBB010D308C1C63
:101540009F2A95000A308C1CA32A950035083F3A43
:101550000319CF2A473A0319D32A1E3A0319D62A68
:10156000023A0319EC2A083A0319662B1F3A0319A9
:10157000762B103A0319832B143A0319532C053A8E
:101580000319D52C1B3A0319842D1F3A03191A2E5F
:101590007B3A0319BF2E0D3A0319BF2EC02E8A11B4
:1015A000B82F8A15C92E8A010028C92E84308316C7
:1015B0009B00013098008A11831276278A158A11C0
:1015C0006B238A158A1173238A158A11AF248A1511
:1015D0008A117F258A15C92E3608633C031D642BAA
:1015E000C10141080B3C031C5B2B04304107C700C1
:1015F000CA001F30CB008A1114268A152C308C1C8F
:10160000FF2A9500CA014108C9002D08CC002C080A
:10161000CB008A1103248A152108C700CA001F3095
:10162000CB008A1114268A152C308C1C152B9500A2
:10163000CA014108C9002F08CC002E08CB008A112E
:1016400003248A152108C700CA001F30CB008A1165
:1016500014268A152C308C1C2B2B95004108C900B0
:101660008A11D7248A152108C700CA001F30CB0071
:101670008A1114268A152C308C1C3C2B9500CA012B
:101680004108C9003108CC003008CB008A1103247E
:101690008A152108C700CA001F30CB008A11142602
:1016A0008A150D308C1C522B95000A308C1C562B41
:1016B0009500C10AF12A0D308C1C5C2B95000A3074
:1016C0008C1C602B9500652B2C28C92E8A11732346
:1016D0008A158B3083169B00013098008A11831283
:1016E00076278A158A11AF248A15C92E8A115322AA
:1016F0008A15903083169B00013098008A1183125E
:1017000076278A15C92EC8013530C7000330C900B5
:101710001121A108031D522C3808303C0319942BC9
:101720003808313C031D492C3608C3003708C40073
:10173000C8014330C70037212108C5003808C3005D
:10174000C401C8014330C70037212108C60045083D
:10175000C7003522210B3F2C4508053C0318D62B2A
:101760004508083C031CD62B460BD62B9430831619
:101770009B0001309800031004308312CA008A11C4
:10178000B5258A154508CA001F30CB008A111426DA
:101790008A15973083169B000130980003100D3096
:1017A0008312CA008A11B5258A153E2C04304502E1
:1017B000C700CA014708C9002D08CC002C08CB007F
:1017C0008A1103248A15210BF02BC608031DF02B68
:1017D00004304502C700C800C9018A1123248A15B4
:1017E0009E3083169B000130980003100430831252
:1017F000CA008A11B5258A154508CA001F30CB00DA
:101800008A1114268A15A13083169B000130980096
:10181000031005308312CA008A11B5258A15C6083F
:10182000031D1C2CA43083169B00013098008A11E4
:10183000831276278A15252CA83083169B00013049
:1018400098008A11831276278A1504304502C70052
:10185000CA014708C9002D08CC002C08CB00460857
:10186000CD008A1148258A152208AD002108AC0058
:101870008A11AF248A158A117F258A15482CAD302C
:1018800083169B00013098008A11831276278A15EF
:10189000522CB73083169B00013098008A118312B6
:1018A00076278A15C92EC8013530C7000330C90014
:1018B0001121A108031DD42C3808303C0319642CD5
:1018C0003808313C031DCB2C3608C3003708C40050
:1018D000C8014330C70037212108C5003808C300BC
:1018E000C401C8014330C70037212108C60045089C
:1018F000C7003522210BC12CC03083169B0001305C
:101900009800031004308312CA008A11B5258A1585
:101910004508CA001F30CB008A1114268A15C3302F
:1019200083169B000130980003100F308312CA0009
:101930008A11B5258A154608CA001F30CB008A11C6
:1019400014268A150D308C1CA32C95000A308C1C93
:10195000A72C950004304502C700CA014708C900FA
:101960002F08CC002E08CB004608CD008A11482550
:101970008A152208AF002108AE008A11AF248A150B
:10198000CA2CCD3083169B00013098008A11831237
:1019900076278A15D42CD73083169B000130980007
:1019A0008A11831276278A15C92EC8013530C700DF
:1019B0000230C9001121A108031D832D3608C30080
:1019C0003708C400C8014330C70037212108C500CB
:1019D0004508C7003522210B7A2D04304502C70087
:1019E000CA014708C9002D08CC002C08CB008A1179
:1019F00003248A15210B3E2D04304502C700CA017D
:101A00004708C9002F08CC002E08CB008A110324F8
:101A10008A152108C700E23083169B000130980028
:101A2000031004308312CA008A11B5258A154508AF
:101A3000CA001F30CB008A1114268A15E5308316A0
:101A40009B0001309800031008308312CA008A11ED
:101A5000B5258A154708CA001F30CB008A11142605
:101A60008A15EA3083169B000130980003100B3072
:101A70008312CA008A11B5258A15792D04304502D2
:101A8000C700C9008A11D7248A152108C700F03081
:101A900083169B0001309800031004308312CA00A3
:101AA0008A11B5258A154508CA001F30CB008A1156
:101AB00014268A15F33083169B000130980003101A
:101AC00008308312CA008A11B5258A154708CA0052
:101AD0001F30CB008A1114268A15F83083169B001C
:101AE0000130980003100A308312CA008A11B5250C
:101AF0008A15832DFE3083169B00013098008A11D1
:101B0000831276278A15C92EC8013530C7000330E5
:101B1000C9001121A108031D192E3808303C0319F2
:101B2000952D3808313C031D102E3608C3003708A8
:101B3000C400C8014330C70037212108C500380858
:101B4000C300C401C8014330C70037212108C600C3
:101B50004508C7003522210B062EC608031DD02DCF
:101B6000083083169B000230980003100430831263
:101B7000CA008A11B5258A154508CA001F30CB0056
:101B80008A1114268A150B3083169B0002309800A8
:101B900003100F308312CA008A11B5258A15EF2D64
:101BA000133083169B000230980003100430831218
:101BB000CA008A11B5258A154508CA001F30CB0016
:101BC0008A1114268A15163083169B00023098005D
:101BD00003100E308312CA008A11B5258A1504300D
:101BE0004502C700CA014708C9003108CC003008C7
:101BF000CB004608CD008A1148258A152208B1007D
:101C00002108B0008A117F258A150F2E1E308316F9
:101C10009B00023098008A11831276278A15192EAC
:101C2000283083169B00023098008A118312762791
:101C30008A15C92E36087E3C031D292E3708433CE1
:101C4000031D292E3808253C031D292E0130BD0017
:101C5000BE00313083169B00023098000310113013
:101C60008312CA008A11B5258A150130CA001F30B7
:101C7000CB008A1114268A152E308C1C3D2E95001F
:101C80000330CA001F30CB008A1114268A150D308C
:101C90008C1C482E95000A308C1C4C2E950001306F
:101CA000C10041080C3C031C682E410883169B00B0
:101CB0009C131C141A088312C20042085E3C031DC8
:101CC000622E682E42088C1C632E9500C10A512E8C
:101CD0003E3083169B00023098008A1183127627CB
:101CE0008A150D30C1004108103C031C8D2E41089F
:101CF00083169B009C131C141A088312C700470804
:101D00008C1C802E950041080E3C031D8B2E3A3012
:101D10008C1C882E9500C10A732E493083169B00B7
:101D2000023098008A11831276278A151130C1007B
:101D30004108183C031CB62E410883169B009C13D7
:101D40001C141A088312C70047088C1CA52E950086
:101D50004108123C0319B02E4108143C031DB42E57
:101D60002F308C1CB12E9500C10A982E0D308C1C82
:101D7000B72E95000A308C1CBB2E9500C92EC92E9B
:101D80004C3083169B00023098008A11831276270C
:101D90008A15C8013530C7008A11A5258A153E303D
:0A1DA0008C1CD02E9500952A6300DC
:02400E00C435B7
:00000001FF
;PIC16F688
;CRC=A20A  CREATED="19-Nov-16 13:34"
